:020000040800F2
:10000000F80800245D03000813430008CB3E0008F5
:1000100011430008F91300081950000800000000FF
:10002000000000000000000000000000F947000888
:10003000FB1300080000000079450008294800086B
:1000400077030008770300087703000877030008A8
:100050007703000877030008770300087703000898
:100060007703000877030008770300087703000888
:100070007703000877030008770300087703000878
:100080007703000877030008770300087703000868
:100090007703000877030008770300087703000858
:1000A0007703000877030008770300087703000848
:1000B0007703000877030008770300087703000838
:1000C0007703000877030008770300087703000828
:1000D00077030008770300080D5000087703000835
:1000E000770300087703000800000000770300088A
:1000F00077030008770300087703000877030008F8
:1001000077030008770300087703000877030008E7
:1001100077030008770300087703000877030008D7
:1001200077030008770300087703000877030008C7
:1001300077030008770300087703000877030008B7
:1001400000000000000000000000000000000000AF
:100150007703000877030008770300087703000897
:100160007703000877030008770300087703000887
:1001700077030008770300087703000800000000F9
:100180007703000877030008770300087703000867
:100190007703000877030008770300087703000857
:1001A0007703000877030008770300087703000847
:1001B0007703000877030008770300087703000837
:1001C0007703000877030008770300087703000827
:1001D0007703000877030008770300087703000817
:1001E0007703000877030008770300087703000807
:1001F00077030008770300087703000877030008F7
:1002000077030008770300087703000877030008E6
:1002100077030008770300087703000877030008D6
:100220007703000877030008770300080000000048
:100230007703000877030008000000007703000838
:1002400077030008770300087703000877030008A6
:100250007703000877030008770300087703000896
:100260007703000877030008770300087703000886
:1002700077030008770300087703000800000000F8
:1002800077030008770300087703000800000000E8
:10029000000000007703000800F002F800F04FF8BB
:1002A0000AA090E8000C82448344AAF10107DA45D1
:1002B00001D100F044F8AFF2090EBAE80F0013F0D4
:1002C000010F18BFFB1A43F00103184780510000CB
:1002D000A0510000103A24BF78C878C1FAD852075C
:1002E00024BF30C830C144BF04680C6070470000B0
:1002F0000023002400250026103A28BF78C1FBD82F
:10030000520728BF30C148BF0B607047642900F016
:100310001981782900F05281732900F0F1820020C0
:1003200070471FB505F024F89DE8030000F044FE77
:1003300000F04AFB1FBD10B500F0AFFB10BD00F090
:1003400012FC1146FFF7EDFF04F0A4FE00F002FEE0
:1003500003B4FFF7F0FF03BC04F077FE09488047C1
:1003600009480047FEE7FEE7FEE7FEE7FEE7FEE797
:10037000FEE7FEE7FEE7FEE704480549054A064BAF
:1003800070470000D148000899020008F8020024D4
:10039000F8080024F8040024F804002453EA020CAE
:1003A00000F069802DE9F04B4FF00006002B1FBFD5
:1003B000B3FA83F503FA05F424FA05F65E4012BF9A
:1003C0001643B2FA82F502FA05F4C5F120051EBF04
:1003D00022FA05FC44EA0C04203556EA044C4FEAA4
:1003E000144418BF641C4FF000084FF000099042FD
:1003F00071EB030C39D3002919BFB1FA81F701FA67
:1004000007F6B0FA80F700FA07F6C7F120071EBF1B
:1004100020FA07FC46EA0C062037B6FBF4FCA7EBF3
:100420000507103F07F01F0BCBF120060CFA0BFB62
:100430002CFA06F644BFB3460026202FA4BF5E4622
:100440004FF0000B5BEA060C08BF4FF0010B19EBF5
:100450000B09ABFB027C48EB0608C01B06FB02CC79
:100460000BFB03CC71EB0C01C1E70B460246414686
:100470004846BDE8F08B13B54FF000004FF0000187
:10048000AFF30080BDE81C40704700000FB4044982
:1004900010B503AA029800F037FA10BC5DF814FBFF
:1004A000F001002470B5044685690068C10601D5D5
:1004B000302600E02026C00707D070BDD4E9012116
:1004C00030469047206A401C20626D1EF6D570BDF4
:1004D00070B5044685690078C00707D170BDD4E9BE
:1004E000012120209047206A401C20626D1EF6D515
:1004F00070BD70B50C460546012A05D028788006E7
:1005000000D5EA69002302E0012305E05B1C934269
:1005100002D2E05C0028F9D1A869E618C01AA861E7
:10052000286A184428622846FFF7BCFF04E0D5E992
:10053000012114F8010B9047B442F8D32846FFF785
:10054000C7FF70BD2DE9F0410646002410687529EB
:10055000314616A510D0AFF30080002802DA4042E1
:1005600013A507E031688A0701D512A502E0490703
:1005700004D511A5012401E0AFF3008000210A2277
:1005800006F1240709E0B0FBF2FCB0FBF2F302FB3A
:100590001C00303078541846491C0028F3D12346FB
:1005A0002A463046BDE8F04100F03FB900000000A7
:1005B0002D0000002B0000002000000070B5044654
:1005C0000D4621461068AFF300802188090502D549
:1005D0000F4A7A4402E00E4A7A440E32002104F1B6
:1005E000240305E000F00F060009965D5E54491CE7
:1005F0000028F7D120780023000704D5702D02D001
:1006000009B1022311322046BDE8704000F00DB957
:10061000DC4D00002DE9F05F894604464FF0000AEA
:10062000DFF824B1FB44C0F820A02046E1688847E9
:1006300000287DD0252806D0D4E901219047206AE2
:10064000401C2062F1E700255F462046E1688847AC
:100650002028064607DB312E05D2B81910F8200CE9
:1006600008B10543F1E7A80701D525F00405C4F852
:100670001CA00027C4F818A02A2E09D0304604F088
:10068000DDFC38B304EB8708303EC8F8186019E089
:1006900059F8041B204604EB87029161E168884702
:1006A000012F064618D1E069002820DA25F0200540
:1006B0001DE0D8F8180000EB800006EB4000303851
:1006C000C8F818002046E1688847064604F0B6FCE2
:1006D0000028EED1012F0AD02E2E08D12046E16845
:1006E00088477F1C0646022F45F02005C4DBA06921
:1006F000002803DA404245F00105A061E80701D077
:1007000025F01005A6B1A6F14100192802D820361F
:1007100045F400654A463146204625604D46FFF7C0
:10072000F5FD60B1012807D0ED1D25F0070000E0C0
:1007300007E000F1080978E705F1040975E730469C
:100740007AE7206ABDE8F09FB24D0000032A40F22C
:10075000308010F0030C00F0158011F8013BBCF163
:10076000020F624498BF11F801CB00F8013B38BF7B
:1007700011F8013BA2F1040298BF00F801CB38BF89
:1007800000F8013B11F0030300F0D080083AC0F0FC
:10079000088051F8043B083A51F804CBA0E808104F
:1007A000F5E7121D5CBF51F8043B40F8043BAFF382
:1007B0000080D20724BF11F8013B11F801CB48BFDC
:1007C00011F8012B24BF00F8013B00F801CB48BF12
:1007D00000F8012B70474FF0000200B51346944615
:1007E0009646203922BFA0E80C50A0E80C50B1F189
:1007F0002001BFF4F7AF090728BFA0E80C5048BF9D
:100800000CC05DF804EB890028BF40F8042B08BF3A
:10081000704748BF20F8022B11F0804F18BF00F836
:10082000012B70477047704770472DE9F0470D4620
:1008300099469246044600F124080168880604D5CA
:10084000E06921F01001216000E00120A84201DDF3
:10085000471B00E00027A1697A1902EB0900081A7A
:10086000A0612078C00602D42046FFF71BFE0026B8
:1008700008E0D4E901211AF806009047206A401CDC
:10088000761C20624E45F4DB2078C0060AD520464F
:10089000FFF708FE06E0D4E9012130209047206AE6
:1008A000401C2062381EA7F10107F4DC07E0D4E900
:1008B000012118F805009047206A401C2062281E7C
:1008C000A5F10105F3DC2046FFF702FE20780006C3
:1008D00002D50220BDE8F0870120FBE710B543698F
:1008E00013B1AFF3008001E0FFF703FE012010BD5C
:1008F000127800F124010A7000224A700122EDE70B
:1009000011684FF0FF32E9E7074B70B50D467B44A5
:1009100000F043F80446284600F052F810B14FF0BA
:10092000FF3070BD204670BD6747000010B5203A0B
:10093000C0F00B80B1E81850203AA0E81850B1E898
:100940001850A0E81850BFF4F5AF5FEA027C24BF4E
:10095000B1E81850A0E8185044BF18C918C0BDE845
:1009600010405FEA827C24BF51F8043B40F8043B0E
:1009700008BF7047D20728BF31F8023B48BF11F8C3
:10098000012B28BF20F8023B48BF00F8012B70471D
:1009900001694A1C02610878704700B58FB0CDE943
:1009A00001310021059105497944CDE90310114633
:1009B0006846FFF72FFE0FB000BD0000E5FFFFFF08
:1009C000007B00F08000704710B542485421FFF7CB
:1009D00002FF41485421FFF7FEFE40485421FFF733
:1009E000FAFE3F493B483C4A3F4B08603D490A609C
:1009F0003A491960531C0365481C106501200865BD
:100A00003B48344A39A1784400F008FA20B9384804
:100A100078440A3800F0A7FA37482F4A35A17844BD
:100A200000F0FCF920B9344878440A3800F09BFA09
:100A300032482A4A2FA1784400F0F0F920B92F4813
:100A400078440A3800F08FFA40232248DC00002165
:100A5000224600F0BFF920B125487844543800F010
:100A600082FA1D4822464023002100F0B3F920B14C
:100A700021487844543800F076FA1848224610236A
:100A8000002100F0A7F9002806D01C487844BDE8F2
:100A90001040563800F067BA10BD104870B5006DB0
:100AA00020F001040B4800F02FFA0B4800F02CFA5C
:100AB0000A4800F029FA09E0206D20F001052046DF
:100AC00000F022FA204600F073F82C46002CF3D1F7
:100AD00070BD00009C010024F001002444020024A9
:100AE00014000024180000241C00002472000000E0
:100AF000E149000077000000CD490000B94900003D
:100B00000EB5CDE9000100F0C9FB02906946012055
:100B1000ABBE0EBD08B5694600900220ABBE08BD55
:100B20001FB58DE8070069460520ABBE04B010BDB7
:100B30001FB58DE80F0069460620ABBEF6E708B585
:100B4000694600900920ABBE08BD1CB5CDE9000187
:100B500069460A20ABBE1CBD704708B569460090C7
:100B60000C20ABBE08BD754600F004FAAE46050089
:100B70006946534620F00700854618B020B5FFF7B8
:100B8000FBFBBDE820404FF000064FF000074FF0A0
:100B900000084FF0000B21F00701AC46ACE8C0099B
:100BA000ACE8C009ACE8C009ACE8C0098D467047A4
:100BB00070B50446051F00F0E3F90068002C14BF6F
:100BC000446870BD002C18BFAC423CBF204664682E
:100BD000F8D301680A18AA4218BF456003D12A68F1
:100BE00005461144016028684119A1421CBF6C6090
:100BF00070BD6168696021680844286070BD2DE996
:100C0000F04705460C46C86820F4201040F48000E8
:100C1000C860800602D5084600F0FFFAE06841F29D
:100C200082014FF0FF390140022903D0204600F035
:100C30009DFAB5E000F42041B1F5004F0FD1C0039B
:100C400006D56168E06A884200D80846606006E020
:100C50002069E06260606069FFF77FFFA061A068C3
:100C60000022EEB200280DDAE1688B050AD4C043F9
:100C7000A06041F490302260E0606068411C6160D7
:100C80000670A5E0E0689046226040F40050E06005
:100C9000206968BB6069FFF752FF012704F1240552
:100CA000A0B1A08910F4407F08D0E06900F0B3F94A
:100CB000206118B1E06840F4006016E0E76125614A
:100CC000E06820F4407040F480600EE0E06900F0DD
:100CD000A2F900282061F1D0E06840F4006010F42F
:100CE000407FE06002D140F48070E0602069606085
:100CF000E06825696FF0010AC1051FD56168E06AE7
:100D0000884200D80846411B04D02246284600F0FD
:100D100037FAF0BBE068010203D5E562C4E9015887
:100D200054E0691CE1626160E16940F48030491E71
:100D3000C4E9021030462E70BDE8F087010202D5EA
:100D400000F480320AE06068411C61600670E0686F
:100D50000A2E40F48030E06006D00022E16A60682C
:100D6000814203D90B4602E00122F7E70346A78937
:100D70005B1B7F0503D4E7699F4200DDE2B181423E
:100D800000D80146E5620F1AC4E90158002B09DDBD
:100D900000E005E022461946284600F0F1F908B1C6
:100DA0004846C9E747B1A069E5626560C01BA0611C
:100DB000E06840F01000E060E068000208D561687B
:100DC000A069E562491B08446560A0615046B3E72D
:100DD0003046B1E770B5C468A50713D0650211D4D9
:100DE000B2F5807F09D0B2F5007F06D0B2F5806FF2
:100DF00008D1012300F1240106E05D1E6FF07F465B
:100E0000B54201D3012070BD0161C361416024F48A
:100E100070611143C160002070BD00002DE9F041F8
:100E20000C4607461646104600F06EF82078611C06
:100E300061280AD0722802D077283CD102E001252F
:100E4000002405E00225042402E0082448F20205FB
:100E500011F8010B2B2806D0622809D011F8010CDB
:100E600074280AD00BE045F0030544F00204EFE7D4
:100E700045F0040544F00104EAE744F01004384664
:100E80002146FFF73DFE411C15D000213161716004
:100E90004FF40071F560F1617061200704D53046B0
:100EA0000222002100F0E6F8306D40F001003065CC
:100EB0003046BDE8F0810020FBE72DE9F0410D460A
:100EC0000646104C206DC10704D0410804D020F024
:100ED0000104F7E722460EE0542000F09CF80700DA
:100EE0000ED0206D47F0010108435421206538469B
:100EF000FFF771FC3A4629463046BDE8F0418DE7E0
:100F00000020D6E79C0100242DE9F04704464FF06D
:100F100000094FF0FF37C568D4E90486A80707D059
:100F2000204600F057F93046FFF7F4FD002802DABA
:100F30003846BDE8F087280502D54046FFF738FE61
:100F40004C212046FFF747FC206D20F00100206572
:100F50004846EEE710B50446AFF300802046BDE8F2
:100F60001040FFF7F5B910B500F07EF9BDE810406C
:100F700000F074B9004870479802002470470000E0
:100F800000487047A00200247047704770477047C0
:100F900038B504460A4600206946AFF300800028B1
:100FA00008BF38BD02460099204600F09DF9012097
:100FB00038BD012000F0ECB9F8B5AFF3008005466C
:100FC00000200C46102000BF0646A819A0420DD9EB
:100FD000324669460020AFF30080070008BF00F0EA
:100FE000D7F90098A04218BF0546C419FFF7C8FFFB
:100FF00005600746F01D20F007004619284600F05E
:101000006CF9B44208BFF8BDA21B31463868BDE890
:10101000F84000F069B970B50646FFF7B1FF056802
:1010200006F10B0020F00704B4429CBF002070BD05
:101030002B466A68BAB11068A04210D304F10801C7
:1010400088423CBF5068586007D35168101941600E
:101050001168091B016058601460101D70BD1346B3
:101060005268002AE7D121462846FFF791FF002861
:10107000DED170BD2DE9F041044616460D464769A4
:10108000007B80072ED03846FFF759FD50BB3EB39A
:10109000012E02D0022E25D104E0204600F03EF9B8
:1010A00005441DE03846FFF758FDE168002841F08F
:1010B0001001E16005DA204600F058F80120BDE893
:1010C000F081C9030BD56268E16A914200D81146EC
:1010D000A26911442269891A814200DD084605444B
:1010E000002D01DA0220EAE7E16A6068E2688142E5
:1010F00006D29103E06203D522F4003141F01002E0
:10110000A6690027AE4213DCE16A814201D90B4691
:1011100000E0034603EB060C2369ACEB030CAC4583
:1011200006DD814201D98C4600E084469C4505D10C
:10113000A760276042F02000A5620DE0AD1BE669C4
:10114000AE1B8142A66000D90846C01A281A20604A
:101150005819606022F0200003490840E060002038
:1011600084F84870ABE70000BFCFD7FFC16821F417
:10117000001141F08001C160002181600160704771
:101180002DE9F047814614460E464FF0FF383248AD
:10119000D5685769054209D03846A169FFF7D5FCE3
:1011A000002811DB2C48C0430540E5602B46324641
:1011B00049463846FFF7B4FCA16920F00042B21A54
:1011C00011440028A16103D02046FFF7CFFF40461D
:1011D000BDE8F08770B504460569C06A6168884259
:1011E00000D80846E16821F42011E160C90312D556
:1011F000A84208D02246411B2846FFF7C1FF10B184
:101200004FF0FF3070BD0020E562C4E90150E06896
:1012100020F48030E060002070BD10B50446C06846
:1012200020F02000E060A16AA06988420DD020462D
:10123000FFF7D0FFE06820F4405040F01000E0607D
:10124000A06AA0612069E062606044F24001E06849
:101250008843E06010BD000010000200002801D0AB
:1012600003F0F3BE7047000010B5014602A000F085
:1012700076F8012010BD00005349475254524544AE
:101280003A2052656469726563743A2063616E271F
:1012900074206F70656E3A200000000010B5431C8A
:1012A00002E010F8011B71B18107FAD14FF0013251
:1012B00002C88C1A8C4314EAC211F9D0C01A0A066B
:1012C00003D0C01E10BDC01A10BD0A0401D0801E7C
:1012D00010BD0902FCD0401E10BD00210160C0E914
:1012E0000110704710207047034640688C46002864
:1012F00018BF88423CBF03464068F8D318681844BA
:10130000884207D00CF1030020F00700001D411AAD
:10131000521A0146081D0A60FFF74ABC10B5014683
:10132000C268900703D0900607D5886A0AE000F0EB
:1013300037F801210160881E10BD8B694868184488
:101340000B69C01A91F848301BB191F84910401A46
:1013500010BD1103FCD50028FADD401E10BD70B58C
:1013600005460C460A2000E06D1C03F06FFE35B107
:1013700028780028F8D102E0641C03F067FE14B15D
:1013800020780028F8D1BDE870400A2003F05EBE46
:1013900010B500F009F8BDE81040FFF75FBF00008E
:1013A000004870479802002410B5012805D000219C
:1013B00003A0FFF7D4FF012010BD09A1F8E700004A
:1013C00053494752544D454D3A204F7574206F662E
:1013D0002068656170206D656D6F72790000000096
:1013E0003A2048656170206D656D6F727920636F7A
:1013F0007272757074656400FEE7704772B6FEE73E
:101400002DE9F84F044600F029FC00903CB194F817
:101410003500022806D0802161650020E4E001202B
:10142000BDE8F88FC74DC74EC6491835206830361D
:10143000DFF81483DFF814938842DFF814A3DFF891
:1014400014B32ED0A8422CD0B0422AD0404528D088
:10145000484526D0504524D0584522D0BD4A1832A0
:1014600090421ED0BC4A90421BD0BB4A18329042D8
:1014700017D0B94A3032904213D0B74A483290421E
:101480000FD0B54A603290420BD0B34A78329042C6
:1014900007D0B14A9032904203D0AF4AA83290426E
:1014A00009D1026822F01E0202602068426922F01F
:1014B0008002426103E0026822F00E0202602768A7
:1014C0008F4238464DD0A8424BD0B04249D040451B
:1014D00047D0484545D0504543D0584541D09D4A16
:1014E000183290423DD09C4A90423AD09A4A1832E3
:1014F000904236D0984A3032904232D0964A4832A2
:1015000090422ED0944A603290422AD0924A783249
:10151000904226D0904A9032904222D08E4AA832F1
:1015200090421ED08D4A90421BD08C4A1432904279
:1015300017D08A4A2832904213D0884A3C329042CF
:101540000FD0864A503290420BD0844A6432904287
:1015500007D0824A7832904203D0804A8C32974238
:1015600004D1206E026822F48072026075492068FE
:10157000884228D0A84226D0B04224D0404522D06C
:10158000484520D050451ED058451CD071491831CF
:10159000884218D07049884215D06F491831884266
:1015A00011D06D49303188420DD06B4948318842A5
:1015B00009D069496031884205D06749783188424D
:1015C00001D065499031016821F0010101600EE010
:1015D00000F044FB0099401A052808D920226265D2
:1015E0000321002084F8351084F8340017E73868A8
:1015F000C007EDD1534A0121206890422ED0A84265
:101600002CD0B0422AD0404528D0484526D050455D
:1016100024D0584522D04F4B183398421ED04E4B01
:1016200098421BD04C4B1833984217D04A4B30335A
:10163000984213D0484B483398420FD0464B603302
:1016400098420BD0444B7833984207D0424B9033AA
:10165000984203D0404BA833984208D194F85C706C
:101660003F23A06D07F01F07BB40836007E094F89D
:101670005C30A06D03F01F0301FA03F343602068A0
:1016800090424DD0A8424BD0B04249D0404547D0BF
:10169000484545D0504543D0584541D02D4A183291
:1016A00090423DD02C4A90423AD02B4A1832904278
:1016B00036D0294A3032904232D0274A48329042BE
:1016C0002ED0254A603290422AD0234A7832904266
:1016D00026D0214A9032904222D01F4AA83290420E
:1016E0001ED01E4A90421BD01C4A1432904217D082
:1016F0001A4A2832904213D0184A3C3290420FD0F6
:10170000164A503290420BD0144A6432904207D0AD
:10171000124A7832904203D0104A8C3290420BD158
:10172000D4E919024260E06E30B1026822F480729E
:101730000260D4E91C024260002084F8351084F86D
:1017400034006DE610000240580002407000024074
:1017500088000240A00002401004024008540258D1
:101760002DE9F05F28B190F83510022904D08021CE
:1017700041650120BDE8F09F904C904B0168183CFA
:1017800018338E4ADFF83C92A1428D4CDFF838E2E4
:101790008E4FDFF83CB2DFF83CA28F4D8F4E31D038
:1017A00091422FD099422DD0A1422BD0494529D02A
:1017B000714527D0B94225D0DFF810C20CF1180CC2
:1017C00061451FD0DFF808C2ACF1600C614519D04B
:1017D000DFF8FCC1ACF1480C614513D0DFF8F0C173
:1017E000ACF1300C61450DD0DFF8E4C1ACF1180C60
:1017F000614507D0594505D0514503D0A94201D0D4
:10180000B1422CD1DFF8B4C14FF0040880F8358024
:10181000ACF1180C61451DD091421BD0994219D0F2
:10182000A14217D0494515D0714513D0B94211D006
:101830006648183081420DD065486038814209D031
:1018400063484838814205D061483038814201D030
:101850005F481838086820F001000860ABE0D1F854
:1018600000C02CF00E08DFF854C1C1F80080ACF1C4
:10187000180C0168614527D0914225D0994223D0A8
:10188000A14221D049451FD071451DD0B9421BD07E
:10189000DFF838C10CF1180C614515D0DFF830C104
:1018A000ACF1600C61450FD0DFF824C1ACF1480CFD
:1018B000614509D0DFF818C1ACF1300C614503D0A7
:1018C000DFF80CC1ACF1180CD1F800C02CF0010C01
:1018D000C1F800C0DFF8E4804FF0010C0168A8F106
:1018E0001808414546D0914244D0994242D0A14285
:1018F00040D049453ED071453CD0B9423AD0334AF8
:101900001832914236D0324A603A914232D0304A4F
:10191000483A91422ED02E4A303A91422AD02C4A4F
:10192000183A914226D0594524D0514522D0A94297
:1019300020D0B1421ED02A4A91421BD0284A1432EC
:10194000914217D0264A2832914213D0244A3C3281
:1019500091420FD0224A503291420BD0204A643239
:10196000914207D01E4A7832914203D01C4A8C32F1
:10197000914218D1016E0A6822F480720A6090F8D0
:101980005C20816D02F01F020CFA02F24A60D0E97D
:1019900019124A60C16E31B10A6822F480720A607D
:1019A000D0E91C124A600022016D80F835C080F831
:1019B000342001B188470020DCE600002800024006
:1019C000580002407000024088000240A00002401F
:1019D0007004024088040240A0040240B80402409F
:1019E0000854025870B5044600F038F90546601CEA
:1019F00002D004480078044400F030F9401BA042B3
:101A0000FAD370BD000000242DE9F84F03247D4D6A
:101A100000234FF001094FF0B04B4FF00F0AE9E0FF
:101A200009FA03F73A4076D00E7906F00306012E44
:101A300001D0022E18D1D0F808C04FEA430ECE686C
:101A400004FA0EF82CEA080C06FA0EF646EA0C0622
:101A50008660D0F804C00E792CEA070CC6F3001695
:101A60009E4046EA0C0646600E79F643B6070BD058
:101A7000C6684FEA43088F6804FA08FC26EA0C0699
:101A800007FA08F73743C7600E7906F00306022EFF
:101A900012D1DE080F694FEA437C00EB8606B6469A
:101AA000366A4FEADC6C0AFA0CF807FA0CF726EAF9
:101AB00008063743CEF820700F7906684FEA4308CE
:101AC00007F0030704FA08FC07FA08F726EA0C06F1
:101AD000374307604E6816F4403F1CD04A4E3768C3
:101AE00047F00207376036689F0706F00206009647
:101AF00023F0030606F1B046B6463F0FD6F8086459
:101B0000DFF808810AFA07FC404526EA0C0603D1F3
:101B10004FF0000C41E06CE0DFF8F4C0604502D10A
:101B20004FF0010C39E0DFF8ECC0604502D14FF016
:101B3000020C32E0DFF8E0C0604502D14FF0030C48
:101B40002BE0DFF8D8C0604502D14FF0040C24E050
:101B5000DFF8CCC0604502D14FF0050C1DE0DFF886
:101B6000C4C0604502D14FF0060C16E0DFF8B8C0E3
:101B7000604502D14FF0070C0FE0DFF8B0C06045C0
:101B800002D14FF0080C08E0DFF8A4C0604502D194
:101B90004FF0090C01E04FF00A0C0CFA07FC4CEA7C
:101BA000060CCEF808C44F68DBF80060FF0226EA96
:101BB000020600D516435F46CBF80060D1F804C09A
:101BC000DBF804605FEA8C2C26EA020600D5164397
:101BD0007E606E684F6826EA0206BF0300D5164392
:101BE0006E602E684F6826EA0206FF0300D5164392
:101BF0002E605B1C0A6832FA03F67FF411AFBDE871
:101C0000F88F000080000058F44402580000025889
:101C10000004025800080258000C02580010025834
:101C20000014025800180258001C025800200258E4
:101C300000240258426921EA02030A4043EA0241B1
:101C4000816170470AB1816170470904FBE70000B8
:101C500001480068000C70470010005C0148806873
:101C6000704700000000002430B590F84120202A81
:101C700024D190F84020012A20D0012380F8403060
:101C8000242280F84120202300240268156825F0D2
:101C9000010515600268156825F480551560026815
:101CA00015680D43156001680A6842F001020A6078
:101CB00080F8413080F84040002030BD022030BD27
:101CC00030B590F84120202A22D190F84020012AF6
:101CD0001ED0012380F84030242280F841202024A7
:101CE00000250268136823F001031360026813687B
:101CF00023F4706343EA0121116001680A6842F02D
:101D000001020A6080F8414080F84050002030BD58
:101D1000022030BD70B5040004D094F841000025C5
:101D200010B106E0012070BD204684F8405000F05C
:101D3000F7F8242084F841002068016821F00101AF
:101D40000160D4E9001020F07060086120688168AB
:101D500021F400418160E06821680128A06830D04A
:101D600040F404408860E0680228206841682BD075
:101D700021F40061416020682021154A4368134323
:101D800043602068C26822F40042C26054F8106BBD
:101D90000DCC104340EA0320F06054F81C3CD4E919
:101DA00000021043186054F81C0D026842F0010252
:101DB0000260656484F84110256384F84250002075
:101DC00070BD40F40040CDE741F40061D2E700006F
:101DD000008000022DE9FF4F81B0044690F84100D9
:101DE00099469046DDF838B020287BD194F8400021
:101DF000012877D0012084F84000FFF72FFF01224F
:101E0000064619230090D103204602F011F900285C
:101E100053D1414921220025C4F82480102084F8A0
:101E20004120FF2784F842006564A4F82A90608D61
:101E30004FF080794FF0007A6563FF2802D94B4656
:101E4000278505E0608D534620850004000C10D0E6
:101E5000226898F800009062606A401C6062608DA1
:101E6000401E6085208D401E2085401C0091C2B21E
:101E700001E0002200910299204602F0C1F813E02F
:101E800002F040F9C8B9606A216800788862606A27
:101E9000401C6062608D401E6085208D401E80B2B7
:101EA0002085618D01B160B1608D324659460028B0
:101EB0002046E5D102F0FAF8E0B1012005B0BDE816
:101EC000F08F00225B4680212046009602F0B0F899
:101ED0000028F2D1608DFF2805D927853A464B4668
:101EE0000095C8E716E0608D53462085009594F86C
:101EF0002820C0E721682020084AC86121684B6873
:101F000013404B6084F8410084F84250002084F86C
:101F10004050D3E70220D1E70020008000E800FE17
:101F200010B5B6B00446142130A8FEF754FCC02109
:101F30006846FEF750FC1849206888422AD10020E4
:101F4000219008210446CDE90010684600F04EFAC1
:101F500008B1FFF753FA1148016841F080010160B0
:101F6000006830AB122100F0800035903020042250
:101F700083E813000A4830A9CDE93342FFF744FD56
:101F800006480830016841F480010160006800F4EF
:101F90008000359036B010BD00580040E044025833
:101FA000001C025802488168027811448160704721
:101FB00000000024032010B500F086F801F060F85E
:101FC0000F4A104914681368C4F3032203F00F0387
:101FD0008A5CC95C02F01F0201F01F01D0400A4A6E
:101FE00020FA01F11160094908600F2000F010F893
:101FF00008B1012010BD00F02BF8002010BD00003A
:1020000018440258A2530008100000240C000024B9
:1020100070B50D4D04462878A0B14FF47A71B1FB2C
:10202000F0F00A490968B1FBF0F001F086FB48B90D
:10203000102C07D200222146501E00F025F8002067
:102040006C6070BD012070BD000000240C000024F5
:10205000054808B5016841F002010160006800F020
:102060000200009008BD0000F4440258002809DB7B
:10207000410900F01F028900012001F1E021904098
:10208000C1F80001704700000E4BF0B41B680D460C
:10209000C3F30223C3F10706042E00D90426191D39
:1020A000072901D2002300E0DB1E012404FA06F117
:1020B0009C40491E2940641E994014402143F0BCB5
:1020C00002F0ABBF0CED00E0064900F0070210B5CE
:1020D0004FF6FF040868044B204040EA02201843F2
:1020E000086010BD0CED00E00000FA05134970B562
:1020F0000A68D243520705D5096801F007018142F9
:1021000013D118E00A6822F0070202430A60FFF7C1
:10211000A5FD0A4D4FF47A760446083D07E000BF5E
:10212000FFF79CFD001BB04201D9012070BD28685B
:10213000C0438004F4D4002070BD00000C48025855
:1021400010B500F057FF05490968054AC1F30211AF
:10215000515C01F01F01C84010BD0000204402582E
:10216000A2530008494930B5484C0B1D0A68143485
:1021700009681D68246802F00303C5F30012C1F367
:102180000531C4F3CC04002914FB02F200EE102A3E
:10219000F8EE400A75D03F4A9FED3D1AB7EE000AAF
:1021A0006BB1DFED3D1A012B01D0022B64D002EEA2
:1021B000101A1168F8EE422A81EEA22A21E0334C6F
:1021C000283C23689B0612D5344B246801EE901AF4
:1021D0001168C4F3C104F8EE612AE34001EE903ABD
:1021E000C1F30801F8EE611A81EEA22A0BE001EEBC
:1021F000901ADFED2B2A00BFF8EE611A116882EE0B
:10220000A12AC1F3080101EE901A1168F8EE611AD3
:1022100040EE811A71EE800A62EE200AC1F3462177
:1022200001EE101AB8EE411A31EE001AC0EE811A12
:10223000BCEEE11A80ED001A1168C1F3064101EE0F
:10224000101AB8EE411A31EE001AC0EE811ABCEE37
:10225000E11A80ED011A1168C1F3066101EE101A4E
:10226000B8EE411A31EE000A80EE801ABCEEC10AC7
:1022700080ED020A30BD04E001EE901ADFED092A7C
:10228000BAE70021016041608160F3E72844025809
:1022900000000039384402580024744A0090D003EA
:1022A0000024744C20BCBE4B494930B5484C0B1D32
:1022B0000A681C3409681D68246802F00303C5F32A
:1022C0000022C1F30551C4F3CC04002914FB02F22F
:1022D00000EE102AF8EE400A75D03F4A9FED3D1AF5
:1022E000B7EE000A6BB1DFED3D1A012B01D0022BD6
:1022F00064D002EE101A1168F8EE422A81EEA22A8A
:1023000021E0334C283C23689B0612D5344B2468CB
:1023100001EE901A1168C4F3C104F8EE612AE3409B
:1023200001EE903AC1F30801F8EE611A81EEA22A9B
:102330000BE001EE901ADFED2B2A00BFF8EE611AD8
:10234000116882EEA12AC1F3080101EE901A11680A
:10235000F8EE611A40EE811A71EE800A62EE200AF0
:10236000C1F3462101EE101AB8EE411A31EE001AFF
:10237000C0EE811ABCEEE11A80ED001A1168C1F3BB
:10238000064101EE101AB8EE411A31EE001AC0EE05
:10239000811ABCEEE11A80ED011A1168C1F30661E1
:1023A00001EE101AB8EE411A31EE000A80EE801AE2
:1023B000BCEEC10A80ED020A30BD04E001EE901AC5
:1023C000DFED092ABAE70021016041608160F3E78F
:1023D0002844025800000039404402580024744A3E
:1023E0000090D0030024744C20BCBE4B2DE9FE4F5E
:1023F0000546DFF8E48350F8081B0024F64FC94374
:10240000019005F12800264608F1240800900801F3
:102410001DD4A86E50B1B0F5801F0CD0B0F5001FD0
:102420000ED0B0F5401F1ED001240FE0386840F4F4
:102430000030386017E00198022102F0BDF803E097
:102440000098022102F048F904000CD026462888A2
:10245000C043C00523D4A86D05281ED2DFE800F0D4
:102460000C11161B1B00AA6ED8F8001021F44011A5
:102470001143C8F80010EAE7386840F400303860CB
:1024800009E00198002102F097F803E0009800218C
:1024900002F022F9044674B100E00124264628889F
:1024A000C043800528D4E86D80281ED00CDC90B194
:1024B00040280ED114E0AA6DD8F8001021F00701D1
:1024C0001143C8F80010EAE7C02813D0B0F5807FA8
:1024D00010D001240FE0386840F40030386009E083
:1024E0000198002102F068F803E00098002102F052
:1024F000F3F804469CB126462888DFF8DC92C043F6
:1025000009F12C0940052CD4D5F8A800B0F5800FAE
:1025100020D00DDCA0B1B0F5001F0FD115E0EA6DA1
:10252000D8F8001021F4E0711143C8F80010E3E777
:10253000B0F5C00F13D0B0F5000F10D001240FE09C
:10254000386840F40030386009E00198002102F05A
:1025500033F803E00098002102F0BEF804467CB195
:1025600026462888C04300052DD4D5F8AC00B0F12C
:10257000007F21D00EDCA8B1B0F1807F10D116E031
:10258000D5F8A820D9F8001021F460011143C9F84A
:102590000010E6E7B0F1407F13D0B0F1806F10D0AB
:1025A00001240FE0386840F40030386009E00198F9
:1025B000002102F001F803E00098002102F08CF8FD
:1025C000044674B126462868C04380011FD4E86CD5
:1025D000D8B110280FD0202812D0302815D00124CF
:1025E00014E0D5F8AC20D9F8001021F0E0611143D7
:1025F000C9F80010E7E7386840F40030386004E0BC
:102600000198022101F0D8FF044674B126462888BB
:10261000C043C0042BD4286EB0F5005F20D00DDC81
:10262000A0B1B0F5805F0FD115E06B48EA6C2030A7
:10263000016821F0300111430160E8E7B0F5405F27
:1026400013D0B0F5804F10D001240FE0386840F46B
:102650000030386009E00198002101F0ADFF03E08F
:102660000098002102F038F804468CB126462888EC
:10267000C043800429D4686EB0F5403F23D010DCFD
:1026800008B3B0F5803F14D0B0F5003F0FD115E08E
:102690002A6ED8F8001021F4E0411143C8F8001068
:1026A000E5E7B0F5802F0ED0B0F5A02F0BD00124B8
:1026B0000AE00198012101F07FFF03E00098012169
:1026C00002F00AF8044694B126462888C043400424
:1026D0002AD4D5F8B000B0F1405F23D010DC08B3A5
:1026E000B0F1805F14D0B0F1005F0FD115E06A6ED9
:1026F000D8F8001021F4E0211143C8F80010E4E7F5
:10270000B0F1804F0ED0B0F1A04F0BD001240AE001
:102710000198012101F050FF03E00098012101F030
:10272000DBFF044674B126462888C04300041FD44A
:10273000286FD8B1B0F1805F0ED0B0F1005F10D03B
:10274000012414E0D5F8B020D9F8001021F0E041C0
:102750001143C9F80010E7E7386840F400303860EA
:1027600004E00198012101F027FF044674B12646D8
:102770002868C043C0011ED4A86CD0B101280ED077
:10278000022811D0032814D0012413E02A6FD8F8AE
:10279000001021F040511143C8F80010E8E73868F4
:1027A00040F40030386004E00198022101F004FF99
:1027B0000446ACB126462868DFF81CB0C043ABF134
:1027C0001C0B400252D40548016841F4807101603D
:1027D000FFF744FA824611E02C44025800480258A0
:1027E000FA48AA6C016821F0030111430160E2E795
:1027F000FFF734FAA0EB0A00642835D8F4480068E3
:10280000C005F5D58CBBDFF8C4A3B5F8B4100AF148
:10281000240ADAF8000001F4407100F440708842A4
:1028200011D0DAF80010DAF8002021F4407142F4F7
:102830008032CAF80020DAF8002022F48032CAF888
:102840000020CAF80010D5F8B400B0F5807F1AD186
:10285000FFF704FA029012E0FFF700FA0299411A1A
:1028600041F2883081420AD9032426462878DFF8CD
:102870005CA3C0430AF1080AC00721D03CE0DAF8A3
:1028800000008007E8D5D5F8B410C1F30120032873
:1028900058460DD0016821F47C510160B5F8B42090
:1028A000DAF80010C2F30B021143CAF80010DDE79A
:1028B000C84A036802EA111223F47C511143ECE781
:1028C000E86F182816D005DCA0B1082808D0102819
:1028D00004D10AE020280DD028280BD001240AE0DA
:1028E0000198012101F068FE03E00098012101F048
:1028F000F3FE044664B126462878C04380071ED400
:10290000A86F062819D2DFE800F0160C111616166B
:10291000EA6FDAF8001021F038011143CAF800100C
:10292000EAE70198012101F047FE03E00098012148
:1029300001F0D2FE04467CB100E00124264628784E
:10294000C04340071FD4D5F89400062819D2DFE809
:1029500000F0160C11161616AA6FDAF8001021F006
:1029600007011143CAF80010E9E70198012101F0BD
:1029700023FE03E00098012101F0AEFE0446A4B15D
:1029800000E0012426462878C04380062BD4D5F8E1
:102990009000B0F1405F24D011DC10B3B0F1805F43
:1029A00015D0B0F1005F10D116E0D5F89420D9F819
:1029B000001021F007011143C9F80010E3E7B0F15E
:1029C000804F0ED0B0F1A04F0BD001240AE0019847
:1029D000002101F0F1FD03E00098022101F07CFEEE
:1029E000044694B126462878C04340062BD4D5F837
:1029F0009C00B0F5406F24D011DC10B3B0F5806FAF
:102A000015D0B0F5006F10D116E0D5F89020DAF8A7
:102A1000001021F0E0411143CAF80010E3E7B0F5DF
:102A2000805F0ED0B0F5A05F0BD001240AE00198C2
:102A3000002101F0C1FD03E00098022101F04CFEED
:102A4000044694B126462878C04300062BD4D5F816
:102A5000A000B0F5C04F24D011DC10B3B0F5005F7A
:102A600015D0B0F5804F10D116E0D5F89C20D9F8DC
:102A7000001021F4E0511143C9F80010E3E7B0F56C
:102A8000004F0ED0B0F5204F0BD001240AE0019882
:102A9000002101F091FD03E00098022101F01CFEED
:102AA000044654B126462878C04300071ED4D5F802
:102AB0008400B0F5805F0AD00FE0D5F8A020D9F8E7
:102AC000001021F460411143C9F80010EBE70098B1
:102AD000022101F001FE00B10126D5F88420DAF8C8
:102AE000001021F440511143CAF800102878C04367
:102AF000C00613D4D5F89800B0F5807F05D10098B2
:102B0000022101F0E9FD00B10126D5F89820D9F89D
:102B1000001021F440711143C9F800102868C04327
:102B2000000316D4D5F8A40038B1B0F5803F09D021
:102B3000B0F5003F0BD001240AE00198002101F01C
:102B40003BFD03E00098022101F0C6FD04468CB174
:102B500026462868C043400322D4D5F88800B0F543
:102B6000801F11D0B0F5001F13D0B0F5401F15D055
:102B7000012414E0D5F8A420D9F8001021F4403144
:102B80001143C9F80010E4E7386840F400303860B9
:102B900004E00098012101F09FFD04465CB1264647
:102BA0002868C043C00323D4286DA8B1B0F5803F86
:102BB00017D001241BE0D5F88820DAF8001021F4A2
:102BC00040111143CAF80010EAE700004C440258D3
:102BD00000480258CFFFFF00386840F400303860EA
:102BE00004E00198022101F0E7FC0446E4B1264626
:102BF0002868C043800005D40098022101F06CFDD4
:102C000000B101262868C04380031BD4D5F880009A
:102C1000B0B1B0F5807F0FD0B0F5007F10D0B0F527
:102C2000407F0DD001240CE05A482A6D016821F440
:102C3000803111430160DBE7386840F400303860D0
:102C4000ECB326462868C043C00207D46A6FD8F8A0
:102C5000001021F000411143C8F800102868C0435B
:102C6000C00008D4D5F8B820DBF8001021F480416A
:102C70001143CBF800102868C043800207D4EA6EE5
:102C8000D8F8001021F080711143C8F800102868AE
:102C9000C04340000CD4DBF8001021F40041CBF815
:102CA0000010DBF80010D5F8BC201143CBF8001061
:102CB0002868C04308D437486A6D016800E018E00E
:102CC00021F04051114301602868C043000208D43C
:102CD000D5F88C20DAF8001021F440011143CAF82D
:102CE000001028790024C04300F0010020430AD0DE
:102CF0000FE0D5F88020DAF8001021F4407111437C
:102D0000CAF800109EE70198002101F055FC00B1BF
:102D100006462879C04300F00200204305D10198FF
:102D2000012101F049FC00B106462879C04300F0BA
:102D30000400204305D10198022101F03DFC00B1BF
:102D400006462879C04300F00800204305D10098CA
:102D5000002101F0C1FC00B106462879C04300F013
:102D60001000204305D10098012101F0B5FC00B10D
:102D700006462879C04300F02000044304D100989F
:102D8000022101F0A9FC00B916B10120BDE8FE8FB7
:102D90000020FBE74C4402582DE9F05F04000F4689
:102DA0007ED0DFF83882D8F8000000F00F00B8427B
:102DB0000CD2D8F8001021F00F013943C8F80010E8
:102DC000D8F8000000F00F00B84269D12078844D97
:102DD00040070AD52069296801F07001884204D9AA
:102DE000296821F070010143296020787C4E361D4E
:102DF00000070AD56069316801F07001884204D982
:102E0000316821F07001014331602078C0060AD595
:102E1000A069316801F4E061884204D9316821F485
:102E2000E061014331602078DFF8B4B180060BF136
:102E3000080B0CD5E1695846DBF8002002F070025F
:102E4000914204D9026822F070020A43026020789D
:102E500080070AD5E068296801F00F01884204D98B
:102E6000296821F00F01014329602078C0073ED076
:102E70005B49A2682868183920F470601043286004
:102E80006068022818D0032819D00968012819D0D1
:102E9000490700294ADADFF848A1AAF1080A00E048
:102EA00044E0DAF8002022F007020243CAF80020CA
:102EB000FEF7D4FE814612E009688903E9E7096854
:102EC0008901E6E7C905E4E7FEF7C8FEA0EB0901C2
:102ED00041F28830814202D90320BDE8F09F616849
:102EE000DAF8000000F03800B0EBC10FECD1207828
:102EF00080070AD5E068296801F00F01884204D2F2
:102F0000296821F00F0101432960D8F800104046DC
:102F100001F00F01B9420BD9016821F00F013943CB
:102F20000160006800F00F00B84201D00120D4E732
:102F3000207840070AD52069296801F0700188428D
:102F400004D2296821F0700101432960207800072C
:102F50000AD56069316801F07001884204D2316895
:102F600021F07001014331602078C0060AD5A069C4
:102F7000316801F4E061884204D2316821F4E061F3
:102F800001433160207880060CD5E1695846DBF8B2
:102F9000002002F07002914204D2026822F0700216
:102FA0000A43026000F06CF80E492A682B68C2F3ED
:102FB000032203F00F038A5CC95C02F01F0201F0D8
:102FC0001F01D040084A20FA01F11160074908604A
:102FD00007480068BDE8F05FFFF71AB8002000520C
:102FE00018440258A2530008100000240C000024CA
:102FF0000400002430B500F043F80B4A0B490C4B99
:1030000015681468C5F3032204F00F048A5C095D97
:1030100002F01F0201F01F01D040064A20FA01F120
:1030200019601060084630BD18440258A2530008C9
:10303000100000240C00002400B5FFF7DBFF054959
:103040000968054AC1F30211515C01F01F01C84033
:1030500000BD00001C440258A253000800B5FFF751
:10306000C9FF05490968054AC1F30221515C01F015
:103070001F01C84000BD00001C440258A2530008B4
:10308000454970B545480968434B103B11F038027B
:1030900008D00111082A03D0102A0BD0182A0BD00F
:1030A000084670BD19688906FBD51968C1F3C101CE
:1030B000C84070BD3A4870BD3749374D18310C1DB6
:1030C00024350A68096826682D6802F0030406F0B2
:1030D0000102C1F30511C5F3CC0515FB02F200EEA8
:1030E000102AB8EE400AE9B32F4ADFED2E0AB7EEF8
:1030F000001A6CB1DFED2D1A012C01D0022C43D047
:1031000002EE101A1068F8EE422A81EEA22A1EE0A2
:103110001C68A40611D51B6801EE901A1168C3F350
:10312000C103F8EE612AD84001EE900AC1F308000D
:10313000F8EE611A81EEA22A0BE001EE901ADFEDA3
:103140001C2A00BFF8EE611A106882EEA12AC0F3B3
:10315000080001EE900AF8EE611A40EE201A31EEF6
:10316000810A00E015E022EE000A1068C0F3462054
:10317000401C00EE900AF8EE600A80EE201ABCEEC9
:10318000C10A10EE100A70BD01EE901ADFED092A97
:10319000D8E7002070BD0000104402580090D00312
:1031A00040787D0100000039304402580024744A00
:1031B0000024744C20BCBE4B2DE9F05F04007DD090
:1031C000FF4F2078FE4D1837DFF8F493103DC0070D
:1031D00048D0D9F80000396800F03800102815D020
:1031E000182803D101F0030002280FD06068B0F561
:1031F000803F12D010B1B0F5A02F18D0286820F46D
:1032000080302860286820F4802009E02868800346
:1032100028D560680028D2D024E0286840F48030A7
:103220002860606888B1FEF719FD064609E0286845
:1032300040F480202860F0E7FEF710FD801B642832
:103240006FD828688003F7D50CE0FEF707FD064627
:1032500005E000BFFEF702FD801B6428F0D8286857
:103260008003F7D4207841F20308D54E0C3E800746
:1032700069D5D9F80000396810F038000ED0182848
:1032800001D188070AD0E06890B3296821F01901BC
:1032900001432960FEF7E2FC824631E028684007DE
:1032A00002D5E06800288AD0E168286820F019007B
:1032B00008432860FEF7D2FC824607E0DFE000BF4B
:1032C000FEF7CCFCA0EB0A000228B9D8286840071A
:1032D000F6D500BFFEF7BCFC40451BD8206940284E
:1032E00012D0316821F47C3141EA003030602AE0AC
:1032F00018E000BFFEF7B2FCA0EB0A0002289FD83E
:1033000028684007F6D5E5E7306820F47C3040F4C3
:103310000030EBE7207C316821F0FE4141EA00609B
:10332000E4E70DE1286820F001002860FEF796FC34
:10333000824605E0FEF792FCA0EB0A0002288DD839
:1033400028684007F6D42078C0065DD5D9F800007B
:10335000DFF86CB2396800F03800ABF1040B0828D4
:1033600010D0182803D101F0030001280AD0E06929
:103370000028286838D040F080002860FEF76EFCF6
:10338000824623E02868C00523D5E069802876D1ED
:103390001FE0206A202821D0316821F0F84141EA5D
:1033A0008060306030E000BF94F82010DBF800202F
:1033B00022F07C5242EA0161CBF8001024E000BF09
:1033C000FEF74CFCA0EB0A00022898D82868C0053C
:1033D000F6D5FEF73DFC4045E6D8DAE7306820F048
:1033E000F84040F08040DCE720F080002860FEF7E5
:1033F00035FC064605E000BFFEF730FC801B0228C6
:103400009DD82868C005F7D42078000729D56C48D6
:103410006169643000298046016811D041F00101E2
:103420000160FEF71BFC064605E000BFFEF716FC38
:10343000801B0228C9D8D8F800008007F6D510E014
:1034400021F001010160FEF709FC064605E000BF1E
:10345000FEF704FC801B022872D8D8F80000800711
:10346000F6D42078800623D5A0690028286810D0DB
:1034700040F480502860FEF7F1FB064605E036E197
:10348000FEF7ECFB801B02285AD828688004F7D589
:103490000EE020F480502860FEF7E0FB064604E0D2
:1034A000FEF7DCFB801B02284AD828688004F7D48A
:1034B000207840074FD5DFF80C81D8F8001041F490
:1034C0008071C8F80010FEF7C9FB064605E000BF92
:1034D000FEF7C4FB801B642832D8D8F80000C00572
:1034E000F6D5374EA068603601280AD008B1052805
:1034F00013D0306820F001003060306820F0040004
:1035000002E0306840F001003060A06841F2883A83
:1035100090B1FEF7A3FB80460AE0306840F004005B
:103520003060EEE7FEF79AFBA0EB0801514507D8A3
:1035300030688007F6D50EE0FEF790FB804607E086
:1035400084E000BFFEF78AFBA0EB080151457DD85F
:1035500030688007F6D4606AB0B3DFF86480D9F8C9
:10356000001008F120084FF6F87B08F10409C1F3B8
:10357000C2010329A8F1040A69D00228286820F0B2
:103580008070286003D0FEF769FB044684E0FEF7F4
:1035900065FB064605E000BFFEF760FB801B0228C6
:1035A00077D828688001F7D4E26A40F2F3313868AE
:1035B00054F8283F884340EA02101843386004E07A
:1035C0001044025800480258B5E0217B4346228946
:1035D0004FF4FE0C208A4FF0FE474902267D521E12
:1035E000401EA1F50071C2F308088AB2761E0CEAEB
:1035F000004042EA08020243504607EA06610A43D5
:103600001A60DAF8002022F00102CAF80020D9F886
:103610000020266A22EA0B0242EAC602C9F800200C
:10362000DAF80010A26921F00C011143CAF8001069
:103630000168E26921F0020111430160016841F46F
:1036400080310160016841F4003101E021E027E0B0
:103650000160016841F480210160016841F00101CD
:103660000160286840F080702860FEF7F7FA044691
:1036700005E000BFFEF7F2FA001B022809D828680F
:103680008001F7D557E000BFFEF7E8FA001B0228DB
:1036900002D90320BDE8F09F28688001F4D44AE0F5
:1036A00039680128D8F8000021D0A26A01F003038C
:1036B00093421CD1E26AC1F305118A4217D1216BF2
:1036C000C0F30802491E8A4211D1616BC0F3462241
:1036D000491E91420BD1A16BC0F30642491E914293
:1036E00005D1E16BC0F30660491E814201D0012083
:1036F000D0E7A16C4E46D9F80000C0F3CC0081425F
:1037000019D0DAF80000554620F00100CAF8000090
:10371000FEF7A4FA4FEA0007FEF7A0FAB842FBD082
:10372000A26C306820EA0B0040EAC20030602868D2
:1037300040F0010028600020ACE7401EB0F1807F1F
:1037400010B501D3012010BD4FF0E02460610F21BE
:10375000601701F062FC0020A0610721216110BD0B
:1037600030B590F88410012918D0012280F8842007
:103770002421C0F888100022202401680B680D68FD
:1037800023F0005325F001050D60426601680B60CF
:10379000C0F8884080F88420104630BD022030BD3B
:1037A0007047704770B5044690F8840001281DD01A
:1037B000012284F884202420C4F888002068056849
:1037C000026822F0010202602068826822F06062D2
:1037D0000A438260204601F0E9F822682021002097
:1037E0001560C4F8881084F8840070BD022070BD94
:1037F00070B5044690F8840001281DD0012284F899
:1038000084202420C4F8880020680568026822F01B
:10381000010202602068826822F060420A438260EE
:10382000204601F0C3F82268202100201560C4F86A
:10383000881084F8840070BD022070BD7047704706
:10384000704700002DE9F04107680025044640F666
:103850000F030226F8693968BA6818420AD183064C
:103860007ED501F0200302F0805C53EA0C0377D090
:10387000616F74E1CF4BDFF840C3134001EA0C0CD9
:1038800053EA0C0C6CD05FEAC07C0CD05FEAC15CE0
:1038900009D54FF0010CC7F820C0D4F8907047F05C
:1038A0000107C4F89070870709D5D70707D02768A4
:1038B0003E62D4F8906046F00406C4F89060460773
:1038C0000AD5D60708D0276804263E62D4F890604F
:1038D00046F00206C4F8906006070CD501F02006F9
:1038E0001E4308D0266808233362D4F8903043F092
:1038F0000803C4F8903003050BD54B0109D52668A1
:103900004FF400633362D4F8903043F02003C4F8DE
:103910009030D4F89030002B3DD0800609D501F0CE
:10392000200002F08051084303D0616F09B12046A6
:1039300088472168D4F890008968490602D410F0BD
:10394000280F2AD0204601F017F920688068400629
:103950001ED52068083050E8001F21F0400100E02B
:1039600021E040E80012002AF3D1D4F8800078B1B9
:1039700092490165D4F88000FDF7F2FE00280AD0D4
:10398000D4F88000016D00E02046BDE8F041084712
:103990002046FFF755FFBDE8F0812046FFF750FFB6
:1039A000C4F89050F7E7D4F86CC02023BCF1010FA5
:1039B0007ED15FEAC06C7BD55FEAC16C78D5102000
:1039C000386220688068400673D5D4F880107C4A3D
:1039D0000868904234D07A4A1832904230D0784AFF
:1039E000303290422CD0764A4832904228D0744AE5
:1039F0006032904224D0724A7832904220D0704A8D
:103A0000903290421CD06E4AA832904218D06D4A33
:103A1000904215D06B4A1832904211D0694A303228
:103A200090420DD0674A4832904209D0654A6032D0
:103A3000904205D0634A7832904201D0614A903278
:103A400040680004000CA6D0B4F85C208242A2D9E1
:103A5000A4F85E00C869B0F5807F2FD0216851E8D6
:103A6000000F20F4807041E80002002AF6D120689F
:103A7000083050E8001F21F0010140E80012002A40
:103A8000F5D12068083050E8001F21F0400140E8DF
:103A90000012002AF5D1C4F88C30E566216851E89F
:103AA000000F20F0100041E80002002AF6D101E0EA
:103AB00040E00BE0D4F88000FDF7A2FC2667B4F8E4
:103AC0005C00B4F85E10401A81B22FE0B4F85C00DC
:103AD000B4F85E10B4F85E20401A81B2002AB2D069
:103AE0000029B0D0226852E8000F20F4907042E81C
:103AF0000007002FF6D1344F206800F1080050E88D
:103B0000002F02EA070240E8002CBCF1000FF3D1BD
:103B1000C4F88C30E5666567206850E8002F22F015
:103B2000100240E80023002BF6D126672046FFF75D
:103B300037FE30E7C60209D5560207D54FF480108C
:103B400038622046BDE8F041FFF779BE06060AD587
:103B500001F0800602F40002164304D0A16F002990
:103B60007FF412AF17E7420611D54A060FD520465B
:103B7000026852E8001F21F0400142E80014002CC6
:103B8000F6D1C0F88830856700F09EF903E702029D
:103B900006D54A0004D52046BDE8F041FFF74EBEE9
:103BA000C001C6D50029C4DA2046BDE8F041FFF7C0
:103BB000F8BD00000100001020010004634B000864
:103BC0001000024010040240FEFFFFEF10B5040099
:103BD00003D0D4F8880010B107E0012010BD002008
:103BE00084F88400204600F027F82420C4F88800D8
:103BF0002068016821F001010160A06A10B120462F
:103C000000F0F6FE204600F0E1FF0128E6D0206833
:103C1000416821F4904141602068816821F02A01C7
:103C200081602068016841F0010101602046BDE823
:103C3000104000F041BF00002DE9F041B6B004464D
:103C4000142130A8FCF7C7FDC0216846FCF7C3FD6E
:103C50003549022620680727314D0024DFF8C4804B
:103C600088422AD100201F940121CDE90010684626
:103C7000FEF7BCFB08B1FDF7C1FB29481030016815
:103C800041F010010160006800F0100035902868D4
:103C900040F001002860286830A900F0010035904C
:103CA0004FF4C0603090CDE93164CDE933474046F0
:103CB000FDF7AAFE36B0BDE8F0811C498842F9D173
:103CC00000201E940221CDE900106846FEF78EFB0D
:103CD00008B1FDF793FB12480830016841F4003148
:103CE0000160006800F400303590286840F0010061
:103CF0002860286830A900F0010035900C20309031
:103D0000CDE93164CDE933474046FDF77DFE002221
:103D100026201146FEF7B8F92620FEF7A7F9C9E7D5
:103D2000E0440258000002580010014000440040E6
:103D30002DE9F84F0446D0F88C009B4616460D46F8
:103D4000202802D00220BDE8F88FC5B1BEB10027FF
:103D5000C4F890702220C4F88C00E7662034FDF788
:103D60007DFF824654F8180CA6874FF48053E687EF
:103D7000FF21203C984207D1226912B119E00120AD
:103D8000E1E740F2FF1114E04FF07F0278B1B0F1AB
:103D9000805F11D0A4F860709842B4F860704FF062
:103DA000200801D1206970B12E4600250CE026695B
:103DB00036B9A4F86010EFE7216909B13F21F8E7AF
:103DC000A4F86020E8E7002607F0FF09B4F85E00D9
:103DD000F0B10022534620212046CDF800B001F07A
:103DE000CBF818B1C4F88C800320ACE72068406A97
:103DF00056B100EA090006F8010B00BFB4F85E00F6
:103E0000401EA4F85E00E1E7384025F8020BF5E714
:103E1000C4F88C80002096E72DE9F8430446D0F8DA
:103E20008800984616460D46202802D00220BDE89C
:103E3000F883A5B19EB10021C4F890102120C4F8E8
:103E400088001834FDF70AFF814654F8100CA68745
:103E5000E6872027183CB0F5805F02D003E0012000
:103E6000E5E7206910B12E46002510E000260EE09F
:103E70008021204601F080F8C0B9DEB116F8010BB0
:103E800021688862B4F85600401EA4F85600B4F8C1
:103E900056004B464FF00002CDF800800028E7D1D5
:103EA0004FF04001204601F067F848B1C4F888702F
:103EB0000320BCE735F8020B2168C0F30800E0E7F7
:103EC000C4F888700020B2E77047FEE701688A698D
:103ED000D243920701D400228A6200688169C943F3
:103EE000C90703D0816941F0010181617047000079
:103EF0002DE9F047044600680026894617464FF032
:103F0000200835468169C90641D51021C1612FE0DD
:103F1000B9F1FF3F2CD0FDF7A1FEC11B494502D8E6
:103F2000B9F1000F24D12068426894F842108369E7
:103F300002F48042DB431B0415D4B2F5804F12D04B
:103F4000202910D0416841F480414160FDF786FE90
:103F5000074608E0FDF782FEC01B192803D9012699
:103F600045F0200504E020688069C0438006F1D454
:103F700020688069C043800602D5002EC8D003E0C7
:103F800016B92168C1F81C80012645F00405216896
:103F90008869C20505D54FF48072CA6145F00105F4
:103FA000012641050AD5216880054FF4806245F05D
:103FB0000805CA614FF0010602D40AE0800507D562
:103FC000206801264FF4007145F00205C16100E050
:103FD0008EB12046FFF77AFF20680021074F436823
:103FE0003B404360606C2843606484F8418084F8FF
:103FF000421084F840103046BDE8F08700E800FE2B
:1040000070B50068C1F3090141EA0241074D049C03
:1040100019434FF480664268214306EA54532B4308
:104020009A4321F000410A43426070BDFF63FF03E1
:104030002DE9F0411D4617460E460446DDF818806E
:1040400028E0424629462046FFF752FF10B10120E2
:10405000BDE8F081681C1DD0FDF700FEA0EB080054
:10406000A84200D8B5B92068806936EA00000FD0B0
:104070000020B8420ED1626C002084F8400020215C
:1040800042F02002626484F8411084F84200DEE7C6
:104090000120EEE72068806936EA000004D00020A5
:1040A000B842CED00020D3E70120F9E770B516461C
:1040B0000D4604461FE0324629462046FFF718FF0A
:1040C00008B1012070BDFDF7C9FD801BA84200D8D2
:1040D0008DB920688069C04380060CD5626C0020D1
:1040E00084F84000202142F02002626484F84110EC
:1040F00084F84200E5E720688069C0438006DAD48E
:10410000002070BD70B516460D46044621E03246CB
:1041100029462046FFF7ECFE08B1012070BD681C5F
:1041200017D0FDF79BFD801BA84200D88DB92068F1
:104130008069C04380070CD5626C002084F8400081
:10414000202142F02002626484F8411084F8420089
:10415000E3E720688069C0438007D8D4002070BDA1
:1041600010B5054C01212046FDF764FD2046BDE851
:1041700010400221FDF75EBD0004025810B586B064
:1041800014216846FCF727FB1548016841F08001BF
:104190000160016801F080010591016841F00101B1
:1041A0000160016801F001010591016841F002011F
:1041B0000160006800220B4C032100F00200059012
:1041C0002046FDF73FFD00210320009001222046FC
:1041D000CDE9012103916946FDF716FC06B010BD3B
:1041E000E0440258000402581348002110B5114C55
:1041F0000123124A0460C0E90121C0E90331416191
:104200008161C1610162FDF785FD08B1FDF7F6F836
:1042100009480021FDF728FD08B1FDF7EFF8064831
:104220000021FDF74DFD002803D0BDE81040FDF74B
:10423000E5B810BD0058004020000024FFECC0107D
:104240001848002110B5164C0C224FF4E1330460DD
:10425000C0E90131C160C0E904128161C16101623C
:1042600041628162FFF7B2FC08B1FDF7C7F80D4863
:104270000021FFF7BDFA08B1FDF7C0F80948002199
:10428000FFF790FA08B1FDF7B9F80648FFF768FAAA
:10429000002803D0BDE81040FDF7B0B810BD000005
:1042A00000100140740000241848002110B5164C7D
:1042B0000C224FF416530460C0E90131C160C0E91B
:1042C00004128161C161016241628162FFF77EFC7B
:1042D00008B1FDF793F80D480021FFF789FA08B1FE
:1042E000FDF78CF809480021FFF75CFA08B1FDF7EB
:1042F00085F80648FFF734FA002803D0BDE81040DF
:10430000FDF77CB810BD0000004400400801002407
:10431000FEE7FEE72DE9F0478AB0154600241E4669
:10432000FF22DDE9148900948DF814200DF11502A7
:104330008DF815002046DDE9127A01948DF81610EB
:1043400021468DF818300523029403948DF81750F8
:104350008DF8197012F800C0401CC0B26144984238
:10436000C9B2F7D301208DF81A1000F047FA35488A
:104370006423072205A9FFF74FFD322000F068FEF5
:10438000002000F03BFA2F4810224B46694600946B
:10439000019402940394FFF7CBFC002811D02AA0CB
:1043A000494688F80040FCF771F836A0FCF76EF833
:1043B000042D29D0022D2BD0082D2DD0102D2FD03B
:1043C00034E000246A462046115CFF2917D00D29ED
:1043D00015D00F2816D0401C1028F5DB2246694660
:1043E0005046FCF7B3F933A0214688F80040FCF7AB
:1043F0004DF83DA02246514600F0C0F8D5E7401CDC
:10440000C4B2EBE71024E9E786B139A031460AE0EF
:1044100066B13EA0314606E047B143A0394602E00E
:1044200027B148A03946FCF731F802E04CA0FCF770
:104430002DF8072205A94EA000F0A0F80AB0BDE8AB
:10444000F0870000080100245BE794B5E88491E65A
:104450008F90E7A4BA5D202D3E20E8AFBBE58F9694
:10446000E4BA91E58FB0E59B9EE4BCA0E8B685E692
:1044700097B62028E7AD89E5BE85202564206D73B9
:10448000290D0A005BE794B5E88491E68F90E7A4D4
:10449000BA5D202D3E20E68890E58A9FE58F91E960
:1044A0008081E68EA7E588B6E591BDE4BBA43A20FD
:1044B000000000005BE794B5E88491E68F90E7A4E4
:1044C000BA5D202D3E20E694B6E588B0E4BA91E5C9
:1044D0008FB0E59B9EE4BCA02028256420E5AD9725
:1044E000E88A82293A0D0A005B5258E5B8A75D00B8
:1044F000E4BA91E58FB0E5B7A6E8BDAC28E9809FA6
:10450000E5BAA62564290D0A00000000E4BA91E589
:104510008FB0E58FB3E8BDAC28E9809FE5BAA6254A
:1045200064290D0A00000000E4BA91E58FB0E4BBF5
:10453000B0E5A4B428E9809FE5BAA62564290D0A50
:1045400000000000E4BA91E58FB0E4BD8EE5A4B4AC
:1045500028E9809FE5BAA62564290D0A000000001D
:10456000E4BA91E58FB0E5819CE6ADA20D0A0000AA
:104570005B5458E5B8A75D007047000070B50E4663
:104580001546014608A0FBF781FF002405E0315DD8
:1045900006A0FBF77BFF641CE4B2AC42F7D3BDE896
:1045A000704004A0FBF772BF2573200025303258FD
:1045B000200000000D0A00002DE9F047454D04469B
:1045C00089464FF0000A2868C04380070AD0414E50
:1045D000283E306820F080603060FDF73FFB0746E2
:1045E000B04608E00120BDE8F08700BFFDF736FBCC
:1045F000C01B022867D8D8F800000001F6D4206854
:1046000029684FF4FE0721F47C313E0241EA003074
:104610002860207AA389B4F804C040022D4D2D49AA
:104620005B1E227CACF1010C1035091DA0F5007059
:1046300080B2521ECCF3080C07EA034340EA0C0098
:10464000184306EA0262104328600868626920F095
:10465000C000104308600A68A06922F020020243EB
:104660000A60281D0A6822F010020A6002684FF6EC
:10467000F873E4699A4342EAC40202600868B9F137
:10468000000F40F010020A6011D00868B9F1010F64
:1046900011D040F400100860D8F80000444640F003
:1046A0008060C8F80000FDF7D9FA05460DE00868FB
:1046B00040F40020EFE740F48010ECE7FDF7CEFA7D
:1046C000401B022801D903208DE720680001F5D5A1
:1046D000504688E7284402582DE9F047454D0446E6
:1046E00089464FF0000A2868C04380070AD0414E2F
:1046F000283E306820F080503060FDF7AFFA074662
:10470000B04608E00120BDE8F08700BFFDF7A6FA3B
:10471000C01B022867D8D8F800008000F6D4208893
:1047200029684FF4FE0721F07C713E0241EA0050F7
:104730002860207AA389B4F804C040022D4D2D4989
:104740005B1E227CACF1010C1835091DA0F5007030
:1047500080B2521ECCF3080C07EA034340EA0C0077
:10476000184306EA0262104328600868626920F470
:104770004060104308600A68A06922F40072024396
:104780000A60281D0A6822F480720A6002684FF6E7
:10479000F873E4699A4342EAC40202600868B9F116
:1047A000000F40F480720A6011D00868B9F1010F5F
:1047B00011D040F080700860D8F80000444640F006
:1047C0008050C8F80000FDF749FA05460DE008687A
:1047D00040F48000EFE740F40000ECE7FDF73EFA1C
:1047E000401B022801D903208DE720688000F5D501
:1047F000504688E728440258704700001CB5FF2146
:104800008DF8041010B18DF8041002E0BF208DF86F
:1048100004006420009003480123402101AAFDF711
:10482000D9FA1CBD20000024FDF7BCBB70B59CB0BC
:104830004C216846FBF7CFFF202113A8FBF7CBFFE5
:104840000220FDF753FC2049002420480A6822F08A
:1048500001020A600968016841F440410160016891
:1048600001F440411B9101688904FCD50DF1280C2D
:10487000022009900523A0268CE84900C2030F906E
:1048800008250D9001210E90CDE91054CDE90012BC
:1048900068461294FEF790FC08B172B6FEE740201D
:1048A0001A903F22139203010321CDE9180314ABA0
:1048B00013A883E832000221FEF76EFA002801D027
:1048C00072B6FEE71CB070BD2C04005818480258A0
:1048D0002C48F0B52C4A016841F470010160106861
:1048E00000F00F00072804D2106820F00F00C01D50
:1048F000106026490020254C10340B68244D43F0ED
:1049000001030B6020600B682B400B60136803F001
:104910000F03072B04D9136823F00F03DB1D13606B
:104920001A4C1C4A18341C4B261D371D2060174C8E
:104930001A4D28343060261D3860371D23603B1D1A
:1049400035601C1D3A60251D2E1D1860331D226028
:104950002860326018600A680C4B114C22F48022E7
:1049600060330A60186020686FF30F00B0F1005FD9
:1049700003D20C490120C1F8080143F2D2000A49D0
:104980000860F0BD88ED00E00020005200440258AD
:104990007FEDF6EA80020101000202020000FF0141
:1049A0000010005C008000510040005230B5416EA4
:1049B000B9B101680D4B03F108048A688968C2F334
:1049C0004262490F5D5C615C2D01B5FBF1F1A0F81D
:1049D0006A10995CA25C0901B1FBF2F1A0F86810C1
:1049E00030BD0121A0F86A10F8E7000092530008DA
:1049F00090F82810090706D50168836B4A6822F4ED
:104A000000421A434A6090F82810C90706D001688E
:104A1000C36A4A6822F400321A434A6090F82810A8
:104A2000890706D50168036B4A6822F480321A436D
:104A30004A6090F82810490706D50168436B4A6818
:104A400022F480221A434A6090F82810C90606D53D
:104A50000168C36B8A6822F480521A438A6090F816
:104A60002810890606D50168036C8A6822F4005272
:104A70001A438A6090F82810490611D50168436CE2
:104A80004A6822F480121A434A60416CB1F5801FD3
:104A900006D10168836C4A6822F4C0021A434A6056
:104AA00090F82810090606D50168C26C486820F401
:104AB00000201043486070472DE9F8430025044664
:104AC000C0F89050FDF7CAF88046206820266FF0A5
:104AD0007E470068000713D5002243463104204674
:104AE000009700F049FA58B1216851E8000F20F012
:104AF000800041E80002002AF6D1C4F8886021E075
:104B000020680068400722D5002243464FF4800108
:104B10002046009700F030FAC8B1206850E8001F26
:104B200021F4907140E80012002AF6D12068083084
:104B300050E8001F21F0010140E80012002AF5D1E1
:104B4000C4F88C60032084F88450BDE8F883C4F86E
:104B50008860C4F88C60E5662567002084F884507E
:104B6000F3E710B5806B0021A0F85E10A0F8561096
:104B7000FEF766FE10BD000010B5026852E8001F87
:104B800021F4907142E80013002BF6D10E4B02681D
:104B9000083252E8001F194042E80014002CF6D1F8
:104BA000C16E012908D1026852E8001F21F01001EE
:104BB00042E80013002BF6D100212022C0F88C20FF
:104BC000C166416710BD0000FEFFFFEF2DE9F04315
:104BD00004468068D84E87B0D84B2168D4E90427B2
:104BE000D4F81CC010430A68002547EA0C07384374
:104BF000324002430A602068E268416821F4405173
:104C0000114341602268A1699A4201D0206A0143A0
:104C10009768DFF82CC3CB4ECB4807EA0C070F434D
:104C200097602168676ACA6A22F00F023A43CA6233
:104C30002268B2420ED1006800F03800182873D004
:104C400047DCB8B3082879D010286FD178E028283D
:104C50007ED17BE0BD498A4209D1006800F007009F
:104C6000062875D2DFE800F0546A6C6E7072B8499D
:104C70008A4209D1006800F00700062868D2DFE800
:104C800000F0475D5F616365B2498A4209D10068FF
:104C900000F0070006285BD2DFE800F03A505254DB
:104CA0005658AD498A420BD1006800F0070006282B
:104CB0004ED200E010E0DFE800F02B4143454749C9
:104CC000A6498A420AD1006800F03800182839D075
:104CD000B7DD2028BBD13CE001203AE0A0498A4260
:104CE00009D1006800F00700062831D2DFE800F0A3
:104CF0001026282A2C2E9B498A420BD1006800F0EE
:104D00000700062824D2DFE800F003191B1D1F212D
:104D100000201EE09A421BD18B48001D006800F065
:104D20000700062814D202E00CE007E010E0DFE8FC
:104D300000F0030507090B0D02200AE0042008E03B
:104D4000082006E0102004E0202002E0402000E0DF
:104D500080208549DFF814829A42854A4FF4004347
:104D60004FEA21174FF000064ED110281AD006DC6A
:104D7000022809D004280BD008287CD10DE0202877
:104D80003ED0402877D13DE0FDF7DAF9014610E04A
:104D90006846FDF7E7F901990BE003A8FDF784FAEF
:104DA000049906E01068800605D51068C0F3C100BC
:104DB000C140002970D0606A676838F8102007EB9E
:104DC0004703B1FBF2F0834255D8B0EB073F52D80E
:104DD000002308461946FBF7E1FA02467808130E4D
:104DE000120243EA012110183A4671410023FBF7F1
:104DF000D5FA604AA0F5407191423CD821688FE015
:104E00003946D8E71946D6E7D4F81CC04FF6EF79F3
:104E10009C4546D1082819D005DC58B101280CD092
:104E2000042875D10DE0102815D0202835D0402851
:104E30006ED134E0FEF700F901E0FEF70FF901460C
:104E400010E06846FDF78EF901990BE003A8FDF725
:104E50002BFA049906E01068800604D51068C0F3A8
:104E6000C100C140C1B1636A606838F81330B1FB5A
:104E7000F3F1490000E04BE001EB5001B1FBF0F031
:104E8000A0F11001494543D84FF6F0732168C0F3F3
:104E900042021840104343E043E03946E3E7194635
:104EA000E1E7082819D005DC58B101280CD0042806
:104EB0002ED10DE0102815D020282BD0402827D146
:104EC0002AE0FEF7B9F801E0FEF7C8F8014610E065
:104ED0006846FDF747F901990BE003A8FDF7E4F9EF
:104EE000049906E01068800604D51068C0F3C1007C
:104EF000C140B1B1636A606838F81330B1FBF3F1B7
:104F000001EB5001B1FBF0F0A0F11001494505D9CA
:104F1000012506E03946EDE71946EBE7216880B246
:104F2000C8600120A4F86A00A4F8680028466667F3
:104F3000A66707B0BDE8F083F369FFCF000C005807
:104F4000FFF4FF1100100140544402580044004097
:104F500000480040004C0040005000400014014058
:104F600000780040007C00400090D0037A53000895
:104F700000440258FFFC0F002DE9F0479946174600
:104F80000D460446089E4FF0000833E0701C31D0F7
:104F9000FCF764FEA0EB0900B04218D8BEB120684F
:104FA0000168490726D5802D24D0402D22D0C16923
:104FB000C94309070DD4082505622046FFF7DCFD2B
:104FC000C4F89050012084F88480BDE8F087032065
:104FD000FBE7C069C04300050CD421684FF40060B2
:104FE00008622046FFF7C8FD2021C4F8901084F81D
:104FF0008480ECE72068C06935EA000004D0002016
:10500000B842C3D00020E0E70120F9E70148FEF7ED
:1050100019BC000008010024FEE7090700284FEA38
:10502000116104DB00F1E02080F80014704700F00B
:105030000F0000F1E02080F8141D704730380A2876
:1050400001D20120704700207047FEE77047000042
:10505000084B0649064A1B68B3FBF1F1536841430C
:105060005068C01A8842FBD37047000040420F00CE
:10507000001000E00C0000248A68002A01DCFBF725
:10508000BEBD521E8A604A68C0B2531C4B6010708D
:10509000704700008EB0FCF78DFFFFF7C7FBFFF7EE
:1050A0006DF8FFF7A1F8FFF7FFF8FFF7C9F84748D9
:1050B000016841F0020101600068142100F0020063
:1050C000009008A8FBF787FB08AA414D00240320A5
:1050D000012182E8130008A928460B94FCF794FCF0
:1050E0000020FFF78BFB012228461146FCF7AAFDA2
:1050F000012228460221FCF7A5FD36A0FBF7C6F9E0
:1051000040A0FBF7C3F949A0FBF7C0F951A0FBF79A
:10511000BDF95AA0FBF7BAF9C8254FF0140A04AE3E
:1051200040F6B8384FF4FA694FF47A7B8DF8344082
:105130005EA0FBF7ABF9FFF713F80DAF03958DE811
:10514000D0001E23042200210120FFF7E3F840468F
:10515000FCF748FC62A0FBF799F9FFF701F803950B
:1051600000238DE8D00001201A461946FFF7D2F837
:105170004846FCF737FC65A0FBF788F9FEF7F0FF1F
:105180000023082219460120CDE90275CDE900A6C9
:10519000FFF7C0F84046FCF725FC69A0FBF776F95D
:1051A000FEF7DEFF039500238DE8D00001201A46AC
:1051B0001946FFF7AFF84846FCF714FC6B48FBF7BD
:1051C00065F95846FCF70EFCB0E70000E0440258D1
:1051D000000402580D0A3D3D3D3D3D3D3D3D3D3DF8
:1051E0003D3D3D3D3D3D3D3D3D3D3D3D3D3D3D3DEF
:1051F0003D3D3D3D3D3D3D3D3D3D3D3D3D3D0D0A42
:1052000000000000202053544D33324837343320FF
:10521000E4BA91E58FB0E68EA7E588B6E7A88BE5FE
:10522000BA8FE590AFE58AA80D0A00002020E4B807
:10523000BBE9A2913A203430304D487A20205553B2
:10524000415254313A203131353230306270730D71
:105250000A0000002020504346383537344030786B
:10526000343020E68EA7E588B620525334383520F6
:10527000E696B9E590910D0A000000003D3D3D3DE8
:105280003D3D3D3D3D3D3D3D3D3D3D3D3D3D3D3D4E
:105290003D3D3D3D3D3D3D3D3D3D3D3D3D3D3D3D3E
:1052A0003D3D3D3D0D0A0D0A000000005BE7B3BB2C
:1052B000E7BB9F5D203D3D3D20E58AA8E4BD9C31D4
:1052C0003A20E4BA91E58FB0E5B7A6E8BDAC28E98D
:1052D000809FE5BAA6333029203D3D3D0D0A0000F0
:1052E0005BE7B3BBE7BB9F5D203D3D3D20E58AA862
:1052F000E4BD9C323A20E4BA91E58FB0E5819CE6AA
:10530000ADA2203D3D3D0D0A000000005BE7B3BBB0
:10531000E7BB9F5D203D3D3D20E58AA8E4BD9C3371
:105320003A20E4BA91E58FB0E4BBB0E5A4B428E933
:10533000809FE5BAA6323029203D3D3D0D0A000090
:105340005BE7B3BBE7BB9F5D203D3D3D20E58AA801
:10535000E4BD9C343A20E4BA91E58FB0E5819CE647
:10536000ADA2203D3D3D0D0A00000000F8530008AD
:105370004FF04070E1EE100A704701000200040097
:10538000060008000A000C00100020004000800009
:1053900000010101010307010000080402040801E3
:1053A00001010000000001020304010203040607DA
:1053B00008093031323334353637383941424344C5
:1053C000454640305800303132333435363738397D
:1053D0006162636465664030780004000008000084
:1053E00000000000000200010000103A7474003A4E
:1053F0007474003A747400000D0A5BE7B3BBE7BB3A
:105400009F5D202D2D2D2D20E4B880E4B8AAE6B5AF
:105410008BE8AF95E591A8E69C9FE5AE8CE6889079
:10542000EFBC8CE4BC91E681AF31E7A792E5908EAA
:10543000E5BC80E5A78BE4B88BE4B880E591A8E6ED
:105440009C9F202D2D2D2D0D0A0D0A006C54000857
:105450000000002420000000D40200088C54000842
:1054600020000024D8080000F0020008010000001D
:1054700010000000000000000090D0030090D00356
:0C54800000000000000000000000000020
:040000050800029954
:00000001FF
